:1000000000000120D9380000013900000339000048
:100010000539000007390000093900000000000020
:100020000000000000000000000000000B3900008C
:100030000D390000000000000F39000011390000E8
:100040001339000001140000E51500001339000009
:100050001339000013390000133900001339000070
:100060001339000013390000E10F000013390000BC
:100070001339000013390000133900001339000050
:100080001339000013390000133900001339000040
:100090001339000013390000133900001339000030
:1000A0001339000013390000450F00001339000018
:1000B00013390000133900000000000000000000A8
:1000C0001339000013390000133900001339000000
:1000D000133900001339000013390000000000003C
:1000E0000000000000000000000000000000000010
:1000F0000000000000000000000000000000000000
:1001000000000000000000000000000000000000EF
:1001100000000000000000000000000000000000DF
:1001200000000000000000000000000000000000CF
:1001300000000000000000000000000000000000BF
:1001400000000000000000000000000000000000AF
:10015000000000000000000000000000000000009F
:10016000000000000000000000000000000000008F
:10017000000000000000000000000000000000007F
:10018000000000000000000000000000000000006F
:10019000000000000000000000000000000000005F
:1001A000000000000000000000000000000000004F
:1001B000000000000000000000000000000000003F
:1001C000000000000000000000000000000000002F
:1001D000000000000000000000000000000000001F
:1001E000000000000000000000000000000000000F
:1001F00000000000000000000000000000000000FF
:1002000010B5054C237833B9044B13B10448AFF350
:1002100000800123237010BDC400002000000000F6
:100220005C3A000008B5034B1BB103490348AFF328
:10023000008008BD00000000C80000205C3A0000FB
:10024000154B002B08BF134B9D46A3F5803A0021A8
:100250008B460F461348144A121A03F093FB0F4BB8
:10026000002B00D098470E4B002B00D09847002061
:10027000002104000D000D48002802D00C48AFF307
:10028000008003F05BFB2000290000F049FC03F034
:1002900041FB00BF0000080000000120000000003A
:1002A00000000000C40000205C1B002000000000D3
:1002B000000000000023CA5C0AB918467047C25407
:1002C0000133F8E72DE9F04792B04649464C474ED6
:1002D000474D6846FFF7EEFF464909A8FFF7EAFFDA
:1002E000684602F077FA09A802F07AFA204602F08E
:1002F00083FA204601F0AAFA3F4B404C4FF4943267
:10030000C6E90123304602F09FFE3D494FF6FF73D8
:10031000C5E9011305F10C003A4902F0BDFE28467B
:1003200002F092FE02274FF000084FF4285336499E
:10033000A4F870304FF0030A04F18C00E780A4F8B1
:1003400008A0C4F80C80FFF7B5FF4FF01909C4F8F6
:1003500088002046C4F88490277102F089FE236843
:100360002A4CB3830423E3800523238142F601232F
:10037000A4F870300723C4F884302046C023C4F8A2
:100380008870C4F80C8084F88C30277184F88DA0B4
:1003900002F06EFE23681E4CF3832123E3802223A8
:1003A000238142F60213F76523820126232319498C
:1003B000238604F17200E660A4F85080A4F87080EF
:1003C00002F06AFE16232046C4F888302371C4F870
:1003D000849002F04DFE2368AB83EE6512B0BDE859
:1003E000F08700BFB039000005000020580400204D
:1003F0001C060020D13900000F0000180403002063
:1004000000282000F2390000173A0000C80400203C
:100410007C060020283A000072B61C4A1C494FF0A6
:10042000FF33C1F88030C2F88030C2F88430C2F89F
:100430008830C2F88C30C2F89030C2F89430C2F8DC
:100440009830C1F88031C2F88031C2F88431C2F8E6
:100450008831C2F88C31C2F89031C2F89431C2F8B8
:100460009831BFF34F8FBFF36F8F0A4B4FF4804229
:100470009A60BFF34F8FBFF36F8F62B68646054613
:100480002B468646054628470020704704E100E0D9
:1004900000E100E000ED00E00D4A1346D2F8001440
:1004A0000029FBD00221C2F80415D3F80024002A49
:1004B000FBD0C3F80805D3F80024002AFBD00022A3
:1004C000C3F80425024AD2F80034002BFBD0704751
:1004D00000E00140064B1A46D3F800140029FBD077
:1004E0000121C3F80415D2F80034002BFBD070476B
:1004F00000E00140034A0160D2F80034002BFBD039
:10050000704700BF00E00140044B0022C3F80425FF
:10051000D3F80024002AFBD0704700BF00E0014060
:10052000006800BA704700002DE9F04F0528C1B0FF
:1005300003460DDC9E4A9F4B117852785A709E4AB2
:10054000197012789A706622DA7041B0BDE8F08FA7
:100550009A4D0F782A68002A40F08D80964E984C6C
:1005600037708C46012014F801EB1CF8018FF04520
:1005700000F10100E9D10928F5D101F10900FFF7E7
:10058000CFFF904C20600024A446A6464FF0030AFB
:10059000A3F1030911F80280B2FBFAFB12F0010F7C
:1005A00018BFC6440BEB4B0B18BF5FFA8EFE5A45C3
:1005B00018BFC44402F1010218BF5FFA8CFC444426
:1005C0004A45E4B2E6DB194411F8028C11F8032C19
:1005D000E04516D1A2EB0E08D8F1000242EB08026A
:1005E00011F8011CA142784940F0DE8088420ADD02
:1005F0006F4A704B117852785A7019709F7064224C
:10060000A2E70022ECE76AB969496A4A08784978A2
:100610005170652110709770D170137182F805C008
:10062000947192E74FF0805300F58047D3F8108023
:10063000B7FBF8F74FF480440137B4FBF8F404FB40
:1006400008F9A74211D801232B60604B00221A60E1
:10065000574A584B117852785A7032789A701970FC
:100660000B22DA7066221A716FE74846FFF714FF13
:100670000134C144E5E700242646A44622464FF053
:100680000309A0F10308885CB2FBF9FE12F0010F28
:1006900018BF84440EEB4E0E18BF5FFA8CFC7245F7
:1006A00018BF361802F1010218BFF6B220444245C5
:1006B000C4B2E8DB01EB030E1EF8020C1EF8032C9B
:1006C000B0421AD1A2EB0C00424242411EF801ECAA
:1006D000DFF8E480A64598F8000000D17AB9344AE2
:1006E000344B117852785A70652219709870DA700C
:1006F00083F804C05E719C7127E70022E6E7421C84
:10070000D2B2974208D02A4A2A4B117852785A70AE
:10071000197098706722A4E7043B9E106C46B200E3
:1007200088F80070013201232746934233D1FFF746
:10073000D1FEDFF89090DFF894A00024A64214D0F8
:10074000DAF8000057F8241000F580508000FFF719
:10075000D1FEDAF800300133CAF80030D9F80030A1
:10076000043B002BC9F800301CDCFFF7CDFED9F8A4
:100770000030002B04DC00232B60154B01221A6093
:100780000B4A0C4B117852785A7098F800209A70E6
:1007900019700B22D8E6C818FFF7C2FE44F8040B04
:1007A0000433C2E70134C9E788423FF721AF2BE7A2
:1007B00010000020A8010020F0000020E40000202C
:1007C0001200002000010020FFBF03000C010020E8
:1007D0000801002070470000074A002310B51146A9
:1007E0001C460133102B02F8014BFAD1034B087061
:1007F0001B784B7010BD00BFE4020020F000002009
:100800002DE9F043494C01782368494A87B0002B11
:100810003AD1117047490246012311F8015B12F8E1
:10082000016FAE4203F1010301D064200AE0092BFD
:10083000F3D10930FFF774FE3F4BB0F5703F1860FD
:1008400005DB652007B0BDE8F043FFF7C5BF4FF0FB
:10085000805300F580451F69B5FBF7F54FF48046DE
:100860000135B6FBF7F606FB07F8B54206D80123BB
:100870002360324B00221A600B20E3E74046FFF76B
:100880000BFE0136B844F0E715786B1CDBB28B42E7
:1008900011D06FF00903EA18D2B28A4207D1002BB7
:1008A00001DA6820CEE70CBF69206720CAE7013370
:1008B0000A2BF0D1B9E701AD137000F110012A46FF
:1008C000C37886781B0443EA06234678334310F83E
:1008D000046F43EA0663814242F8043BF0D1DFF83B
:1008E0005880164FFFF7F6FD0026C146386855F8C8
:1008F000041B00F580508000FFF7FCFD3B680133CE
:100900003B60D8F80030043B002BC8F8003002DD13
:100910000136042EEAD1FFF7F7FDD9F80030002B9D
:10092000AADC002323600122054BA4E7E400002099
:10093000F00000201A000020000100200C0100201F
:10094000080100202DE9F04196B000F09DFA05461F
:1009500001F038FF002876D14F4C504E2368EA1A38
:100960003368C8339A425ED900F080FA1E23B0FB88
:10097000F3F202FB13004A4B30601A788DF83020F6
:100980005A788DF831209A788DF83220454EDA78F1
:100990008DF833201A795B7925608DF8353034680D
:1009A0008DF834204FF48173ADF836303E4B0E9302
:1009B0000CAD002C3AD14FF400633C49ADF83C300B
:1009C0000DF13E00FFF776FC431C8DF83C300E30F5
:1009D00016AB1844B4FA84F464090023012234608D
:1009E00000F8283C2321CDE9002202A82A4600F085
:1009F00039FF2F4D2F4F064603244FF025082B6853
:100A000002AA3146384600F0C7FE2B680133272B77
:100A1000C8BF43460F202B6000F014FB01F0D2FE4C
:100A200008B9013CEBD116B0BDE8F08140F211737A
:100A3000ADF83C30204B0E2013F8012B2A54013026
:100A40001E28F9D1C4E71D4C94F85131002BEAD08F
:100A500000F01AFA1A4B186072B60CAA002310465E
:100A6000E118013391F88C1002F8011B202BF7D10B
:100A700062B6FFF7C5FE0023124A84F85131E1182F
:100A8000013312F8010B81F88C00112BF7D10123EF
:100A900084F85031C7E700BFEC0000200C000020B4
:100AA000050000200401002006020A044D3A00005F
:100AB00000000020D6BE898E280600207C0600207B
:100AC000E0000020E402002008B500F0DDF94FF05E
:100AD000A043D3F810250E4B197801238B40134205
:100AE0000C4B197814BF0122002291421CBF1A70CE
:100AF00009491A78094B18BF08601978914205D046
:100B000005490968401A142888BF1A70187808BD6A
:100B100004000020FC000020F8000020E800002075
:100B20004FF080432DE9F74F0022C3F80021012246
:100B30001A60D3F80021002AFBD0994B994E13225A
:100B40001A70082333704FF0A0431022C3F8182501
:100B5000C3F808250022C3F84C274FF48072C3F86D
:100B60001825C3F80C2500F035F90A2000F06AFAC0
:100B700000F08AF98146FFF7A7FF00F085F9A0EBA6
:100B80000900B0F5967F4BD3FFF79EFF002847D1B1
:100B90000446FFF799FF83462CB300F0C3F900F039
:100BA00063FA814B814F0024C3F8FC4F022000F010
:100BB00049FA03224FF47A71152000F0FDFA022061
:100BC00000F040FA012500F089FBA2460194009450
:100BD00000F05AF947F22F53A0EB090098422AD9A6
:100BE000734B1B683BBB3278724C012393404FF030
:100BF000A042C2F81C3500F037FA44F20403642026
:100C00001B68236000F01EFA322000F01BFA00F08F
:100C10001BF92068FFF700FC002003B0BDE8F08F4F
:100C2000FFF752FF00F030F9A0EB0900B0F5FA6FC2
:100C3000A3D90124ADE7604B1B68002BD3D1FFF78C
:100C400043FF8046002800F08280BBF1000F02D1F4
:100C500000F01AF9824600F017F9584B1A68019B08
:100C6000002D18BF1A46821A33780121B2F57A7F17
:100C700001FA03F329D2C821B0FBF1F201FB120201
:100C8000632A4FF0A0422BD8C2F80C354C4BA0EB96
:100C900009009842A7D84DBBFFF754FEC34697E71B
:100CA0008DB100F03FF900F0DFF93F4B0220C3F8AF
:100CB000FC4F00F0C7F900F0F1FDFFF703FB2B46F6
:100CC00025461C46C7E72C46C5E74FF47A71B0FBB2
:100CD000F1F201FB1202B2F5FA7F4FF0A042D3D33A
:100CE000C2F80835D2E7C2F8083510E000F0CCF8B9
:100CF000834600F02DFB0028D0D0327800990123E4
:100D000093404FF0A0420029EDD0C2F80C35009B73
:100D10002C4883F00103009300F026FB2A49023897
:100D2000FFF702FC3B782949294A01333B700A232B
:100D30007B70082311F8010B02F8010B013BF9D17C
:100D40007978384600F0DCFACDF804B0A6E7BBF1BC
:100D5000000F80D000F098F80AF132038342BFF40C
:100D60007AAFBAF5FA6F7FF676AF002C98D000F024
:100D7000D9F800F079F90C4B0220C3F8FC8F00F091
:100D800061F903224FF47A71152000F015FA022060
:100D900000F058F9254600F0A1FA44465BE700BF91
:100DA000040000200B00002000100040B8040020C8
:100DB000E4000020F400002008010020E0000020F2
:100DC000A0BB0D00B8010020BA010020A80100203E
:100DD000BA040020144BFA2210B50121C3F84025B3
:100DE00004200022C3F80425C3F80815C3F8100531
:100DF0004FF48030C3F804030C48C3F800124FF4DA
:100E000080640460402480F80A430948026009486D
:100E100002600948026009480260094802601960DE
:100E2000084B197010BD00BF00A0004000E100E0B9
:100E300010010020180100202001002014010020D2
:100E40001C01002044010020054B4FF48062C3F8D0
:100E50008020044B01221A61034B00221A70704754
:100E600000E100E000A0004044010020044B01220A
:100E70009A64D3F84805034B1B681844704700BFB9
:100E800000A0004010010020014B1868704700BF0F
:100E900018010020154B70B500251D60144B154E30
:100EA0001A60154B1860154B01245C6031600321FA
:100EB000DC60C3F80455C3F808154FF48031C3F85B
:100EC0001055C3F84005C3F804134FF48071C3F8FC
:100ED00000120AB1C3F80042094A602182F81A13CD
:100EE0004FF08061116001221A6070BD4001002046
:100EF00038010020240100203401002000A001401E
:100F000000E100E010B5054B0C46114601221A60C5
:100F1000FFF7C0FF024B1C6010BD00BF3001002076
:100F200034010020014B01225A60704700A00140AB
:100F3000024B1860024B01221A6070472801002002
:100F40002C01002010B51E4BD3F84021FAB100212E
:100F50001C4AC3F84011106820B11B480068C3F850
:100F600040051160194B1B689847194A13682BB349
:100F7000012B13491AD1144B16481B68006803440F
:100F8000322B38BF3223C1F84035022313600C4B9B
:100F9000D3F8442192B10022C3F844210E4B1B68C0
:100FA00063B10E4BBDE810401B681847022BEED111
:100FB000054B1B68C1F840350023E7E710BD00BFB3
:100FC00000A0014030010020340100202401002055
:100FD0002C01002028010020400100203C010020BD
:100FE000114B12490022C3F840210B68FA330B6001
:100FF0000F4B1968013119600E4918680968884259
:1010000011D30D480168013101601A600B4B19685A
:10101000013119601968B1F57A7F04D30848016875
:10102000013101601A60704700A0004010010020EB
:101030001401002024000020180100201C010020C1
:1010400020010020064B1B7882B03BB1054B1A688B
:10105000024401921968019A9142FBD102B0704793
:101060004401002018010020114BD3F850151A46F6
:10107000E9B1D3F85015042903D0D3F850150C2941
:1010800008D1D2F85035042BFBD0D2F850350C2BB8
:10109000FBD070470022C3F80022C3F810210122C0
:1010A0001A61D3F85025002AFBD1C3F810217047EC
:1010B00000100040F0B53A4C0226C4F88060394C6C
:1010C00001250427FA29C4F8FC5FC4F80C75C4F89C
:1010D0000805204651D1C4F810653349C0F82415DD
:1010E00001F14431C0F828153049C0F81C1501241D
:1010F000C0F820150021C0F82C15C0F83045059D1A
:101100004FF4847465F31344C4F30F4525F48875D4
:1011100065F31F44C0F81445079D0C4665F30704AA
:10112000069D65F30F24224D05EA144545F48275AA
:1011300065F31F4463F359641E23C0F81845C0F8D3
:101140004435AA23C0F83425C0F83C3540F20713D3
:10115000C0F838354FF0FF33C0F81011C0F80C114B
:10116000C0F808330823C0F80433124B19600C4B45
:10117000022283F801131A60F0BDB1F57A7F03D122
:101180000021C0F81015A8E740F2E934A14201D1CE
:101190000321F6E7B1F5FA6F08BFC0F810559CE7D8
:1011A00000E100E00010004011223344A70DE60EDC
:1011B000F8FEFFFF5C0100201FB5064B1B68029381
:1011C0000023CDE900330123FFF774FF05B05DF87C
:1011D00004FB00BF2800002008B50C48D0F85035AB
:1011E000032B09D0D0F85035012B05D0D0F850355D
:1011F000022B01D0FFF738FF1123C0F80032012382
:101200004360034B05221A7008BD00BF0010004068
:101210004D01002008B50C48D0F85035092B05D0F9
:10122000D0F850350A2B01D0FFF71EFF074B0022E4
:101230001A600323064AC0F800320221012303602A
:101240001170044A136008BD0010004048010020DE
:101250004D0100205801002038B51C4C236813B103
:10126000FFF712FE0546236823B1FFF70DFE401B72
:101270000228F8D91648D0F85035092B05D0D0F8F7
:1012800050350A2B01D0FFF7EFFE124B00221A60F7
:101290000323C0F80032012303600F4B04221A70AD
:1012A0000B4BD3F85025002AFBD0D3F850250C2A3D
:1012B000F7D0D3F85025042AF3D0D3F8002242F017
:1012C0001802C3F800220123236038BD5801002012
:1012D00000100040480100204D010020044B1A6816
:1012E000044B1A60044B054AC3F80425FFF774BF8A
:1012F0006801002050010020001000401409002067
:10130000104B70B5891000221D46914213DA0E4C25
:10131000226812B1FFF7B8FD0646236823B1FFF734
:10132000B3FD801B0228F8D9084BC3F80455BDE86B
:101330007040FFF791BF50F8224043F8044B013250
:10134000E3E700BF1408002058010020001000400F
:10135000034B1868034B1B68C01A18BF0120704765
:101360005001002068010020094B10B500221C46E6
:101370006178B2EB910F05DD064B1A68064B1A60D7
:10138000084610BD53F8041B40F822100132EFE765
:10139000140900206801002050010020014B186052
:1013A000704700BF5C010020014B00221A607047AB
:1013B00060010020014B00221A6070476401002088
:1013C0000D4A0023C2F80031C2F80431C2F80831D6
:1013D000C2F80C31C2F81031C2F81431C2F8183119
:1013E000C2F81C31C2F82831C2F83031C2F83431A9
:1013F000024A1360704700BF0010004058010020EF
:1014000070B44A4B196809B170BC0847484BD3F80F
:10141000042112B1C3F804110122D3F80C110029E0
:101420007CD0444A444900261660C3F80C610A780F
:10143000022A0A461DD00878012805D13F4A1368C0
:10144000013313603E4B15E00878042817D13D495D
:10145000C3F80415364B1946D3F85005022803D0BB
:10146000D3F850050328F7D11123C1F80032052322
:101470001370354B1B68002B4AD070BC1847087896
:10148000C0B2052844D12D4D2C6801342C602F4C5E
:101490002478002C3ED02E49D3F800340D782D4C02
:1014A0002D499BB101232D480B60214633469D42B7
:1014B00010F8016B01F8016B03F10106F6DA1C4B21
:1014C0009DB90521117001229A6021E04FF0FF3093
:1014D00008602348214610F8016B01F8016B9D421A
:1014E00003F10106EBDB3346F5E70421117003221B
:1014F000C3F80445C3F8002201221A60D3F850252E
:10150000002AFBD0D3F8002242F01802C3F80022D0
:1015100070BC7047012208709A6093E7002AF7D1E7
:10152000044B1A6070BCFFF74BBF00BF5C0100208A
:1015300000100040580100204D01002068010020EB
:101540006001002014090020640100204C010020EB
:10155000540100201408002048010020F407002056
:10156000D407002070B5184A184C118823889BB204
:101570008B4228D01188164B16480B44C0F84435CE
:10158000258816881449154B09681B68AD1B002D6A
:10159000ABBF2488148815880C1BA8BF641BA3420A
:1015A000A8BF2346C0F84835108803449BB2138077
:1015B00013889942DCBF00231380094B00221A6074
:1015C000044B01229A6070BD700100206E01002062
:1015D000180A0020002000403800002030000020C1
:1015E0002C00002030B42C4BD3F8201189B10022FC
:1015F000C3F82021294B1A88294B1B889BB29342A0
:1016000002D030BCFFF7AEBF264B01221A6030BCBF
:101610007047D3F8102112B3C3F81011D3F83C155A
:10162000214B1A780A44D2B220491A7008681A78F5
:101630001F49824208D302460C461D78954209DCB8
:101640001A78121AD2B21A701B781944124BC3F8C6
:101650003415DAE7255C04F8015B0132EDE7D3F8D5
:1016600044110029D3D0C3F84421D3F83C150E4BC4
:101670001A780A44D2B20D491A7008681A780C49CF
:101680008242E1D302460C461D789542D8DD255CA6
:1016900004F8015B0132F7E70020004070010020F0
:1016A0006E0100202C0000206C010020340000207E
:1016B0002A0C002025280AD026280AD027280AD05C
:1016C0000B28B4BF0423062303EB4000704702201D
:1016D00070471A207047502070470000F0B50E4C3C
:1016E0000E4F0023237022301E461A460021057833
:1016F0000D41ED0704D55D18BD540132D2B201266B
:1017000001310829F3D10833DBB2282B00F10100A5
:10171000ECD106B12270F0BD40000020F60F002091
:1017200090F82A30252B04D124298CBF00200120D9
:10173000704727290CD800EBD10001F0070190F881
:101740002230012000FA01F10B4208BF002070474F
:101750000020704710B590F8292090F827302524F4
:101760001344B3FBF4F204FB1232D2B280F8292006
:101770001146FFF7D5FF40B9054B1978B2FBF1F3DD
:1017800001FB1322D2B2034B9A5C104610BD00BF7E
:1017900040000020F60F002038B5164C1D4603020D
:1017A000000EC4F81C35C4F824052846FFF782FF54
:1017B00045F0400540F25B63C4F80805C4F8545591
:1017C000C4F838350C4BC4F83C350C480C4C00239D
:1017D0008B4208DB074BC3F80405FFF71BFD094BE1
:1017E00002221A6038BDC55C04F8015BD55CC554A3
:1017F0000133EDE700100040555555001E10002044
:10180000E80E00208C01002030B50C480C4C002361
:101810008B420CDB0B4BC3F80405D3F8002242F0DB
:101820000402C3F80022084B02221A6030BDC55CD6
:1018300004F8015BD55CC5540133E9E71E100020B4
:10184000E80E0020001000408C010020044A431ED6
:10185000053013F8011F02F8011B8342F9D17047CC
:101860004A12002010B500246FF3070463F3030449
:101870009DF80C30417063F386149DF8083063F3D3
:10188000C7140023047000F8023F8B4201DBC81C20
:1018900010BDD45C00F8014F0133F6E738B5254C94
:1018A0000225C4F8805000F0C3FFFFF77DFDFFF76D
:1018B00081FD2148FFF772FD002001F06FF91F4BF9
:1018C00001210322C3F8FC1FC3F810251C4AC3F8EA
:1018D00014251C4AC3F818251B4AC3F81C258E2260
:1018E000C3F8242540F203100022C3F82C25C3F8C6
:1018F0003015C3F834059620C3F8440540F25B6008
:10190000C3F838051148C3F83C050420C3F80C059A
:101910004FF6FF70C3F81021C3F80C21C3F8080379
:101920000A20C3F804030A4B84F8012325601960D8
:1019300038BD00BF00E100E0692700000010004052
:1019400008011000FA00030200D6BE895555550063
:10195000740100202DE9F8437C4C7D4F2046FFF7B1
:10196000F9FE7C4B9A8B92B205461E4622B3D98D66
:10197000A28D914220D19A8B4FF6FF71914240F097
:10198000BA80728C93F8263062842046B28CA2848E
:1019900084F82630FFF7A2FE29462046FFF7C0FE56
:1019A00040B96D4B1A78B5FBF2F302FB1355EDB25B
:1019B0006A4B5D5D0023B383694EDFF8D881012354
:1019C000336123691A021B0EC6F81C252846C6F887
:1019D0002435FFF76FFE45F0400540F25B63EDB242
:1019E000C6F80805C6F85455C6F838356369C6F810
:1019F0003C35A38D0133A385FFF738FA594B1860A6
:101A0000C6F8048594F83C30032B09D100255648CC
:101A100084F83C50294601F0B4FA284601F0BEF89B
:101A200094F83C50022D76D14D4BDFF86491474835
:101A300000250126C4F8DC5084F83C60C4F8E0506E
:101A4000C4F8E450C4F8E850C3F8049584F8EC6096
:101A500001F04AF8454B464AC3F80C95C3F8108587
:101A6000C3F81425434AC3F804253046C3F800528E
:101A700001F094F831463C4801F083FAFFF7ACFBE3
:101A80003D4B01221A60364BD3F8001241F002019F
:101A9000C3F80012D3F8001241F00401C3F8001299
:101AA0003B68022B04D1354935483A60FFF7F2F91B
:101AB000FFF7EAF9228C236BB2F57A7FA0EB0300E3
:101AC0003DBF0A23534303F2DC5342F6EC439842F2
:101AD0000FD92C4B01221A60FFF724FAFFF7DEFE24
:101AE00094F83B302BB9284A1368B3FA83F35B09A7
:101AF0001360BDE8F8839A8B244892B2A2831A8CB3
:101B000022840021DA8BE283998301221B493A6007
:101B1000FFF7C0F950E7012DB0D1114B1C4EC3F8AF
:101B200004650A4884F8EC5000F0DEFF0F4B104AC1
:101B3000C3F80C65C3F81085C3F814250D4AC3F823
:101B40000425284601F02AF898E700BF4412002037
:101B500078010020CC18002040000020F60F002063
:101B600000100040980100204C0E002000F00040C2
:101B70002C110020010000018C01002055190000EB
:101B8000FFFF2F007401002088010020FFFF1F00CD
:101B90007415002064130020304B70B50024304EC3
:101BA0001C70C3F89440A3F898402E4B86F8294047
:101BB000172230461A801C715C80B46386F83C4062
:101BC000FFF78CFDB485FFF75FF97063FFF75CF9F1
:101BD0003369254D30631A021B0EC5F81C25C5F864
:101BE000243596F829201046FFF764FD40F25B6328
:101BF00042F04002C5F80805C5F85425C5F8383547
:101C00007369C5F83C35738B184940F2E24058437C
:101C1000A0F5967022460001FFF73CF9144BC5F879
:101C20000435144B5C70144B1C705C70FFF7D4FAD5
:101C3000D5F8003243F00203C5F80032D5F800327F
:101C400043F00403C5F800320C4B01221A600C4A21
:101C5000022313600B4A136070BD00BF4C0E0020BE
:101C6000441200207214002000100040551900009A
:101C7000641300201E100020E80E00208C010020BC
:101C8000780100207401002082B00023CDE90033E8
:101C900021238DF800300923C370021D6B460C30E0
:101CA00013F8011B02F8011B8242F9D1092002B08E
:101CB000704782B00023CDE9003321238DF8003036
:101CC0000823C370021D6B460C3013F8011B02F889
:101CD000011B8242F9D1092002B070471523C3705D
:101CE000402100230422017143718371C27101728A
:101CF00043728372C27209207047000004230D4AA8
:101D000010B500F10C01C370C31812F8014B03F8B1
:101D1000014B8B42F9D1084B93F86620027393F87C
:101D20006720427393F86820827393F86930C37315
:101D30000D2010BDA2120020441200201FB5052363
:101D4000C370184800F0F6FD6B46174A0824184681
:101D500012F8011B03F8011B013CD17AD971F7D1AC
:101D6000124900F015FE124B0222C3F8DC4083F842
:101D70003C20C3F8E04003F15A01C3F8E440C3F843
:101D8000E8401A1911F8010B82F8ED00221D1A44DF
:101D90000134C87A82F8ED00042CF2D1012004B09D
:101DA00010BD00BFCE12002096120020101300209C
:101DB0004412002008B5FFF7B5F8044B01221A6061
:101DC000FFF76CFD4FF0FF3008BD00BF740100202D
:101DD00010B51E4A1E4804211346545C00F8014BFE
:101DE00001310C29F9D1117B527B1A4C41EA0222B4
:101DF000A4F84E2004F152010E22985C01F8010B68
:101E00000132162AF9D19A7D84F85A20DA7D84F8B5
:101E10005B2011481A7E5B7E84F85D3084F85C207C
:101E200000F072FD00F056FD030C84F86830B4F841
:101E30004E30A4F86600000E84F86900A4F8503013
:101E400013B1044800F040FF042010BD64130020CB
:101E50008112002044120020A2120020084A917929
:101E6000537943EA01230F2B04D1064B01221A6058
:101E70000C207047752BFBD1024B0022F7E700BF07
:101E800064130020880100200D4A0E4B117983F85D
:101E90002210517983F82310917983F82410D17995
:101EA00083F82510117A83F82610517A927A41EA44
:101EB0000222DA854FF6FF729A834FF0FF307047A7
:101EC00064130020CC1800200F4B104A19791176AA
:101ED0005979987941EA00215183D979187A41EAF0
:101EE00000219183597A987A41EA0021D183D97AE5
:101EF000187B41EA00211184597B9B7B41EA032333
:101F0000D3854FF0FF30704764130020CC180020B9
:101F100008B5064B1A795879197A5B7A42EA00209B
:101F200001F084F84FF0FF3008BD00BF64130020BB
:101F300010B5324C2368002B01DA002010BD082BAD
:101F40000AD12F48FFF7B5FE2368092B06D12C488C
:101F5000FFF79AFE80B9F0E70020F5E70C2B2CD1B3
:101F6000274AD37008231371FF23537193710423FD
:101F7000D3710023137206200322002362F30703A8
:101F8000204A92F8391092F8382061F3820362F304
:101F9000C3031B4A03F0EF031370C3B253701A4B11
:101FA000C3F80425194B02221A602368042B0CBFC6
:101FB00005234FF0FF332360C0E7042B03D1104803
:101FC000FFF79CFEC6E7052B03D10D48FFF7B6FED1
:101FD000C0E7062B03D10A4A0120D370CCE7152BAA
:101FE00003D10748FFF77AFEB4E7072BB2D1044AC2
:101FF000D370074B1B7813710220BDE7440000200B
:102000001E10002044120020001000408C0100200F
:102010009017002070B53A4A3A4C0123002563F32B
:10202000070592F8393063F3820592F8383063F38C
:10203000C3052368002B6FF30415264603DBBDE8B8
:102040007040FFF775BFC8B12F4BDB78DBB24FF0A4
:10205000FF31022B216012D1FFF7ACFE20602B4B29
:102060001B68002B47D12A4B0022EDB21D705A701D
:10207000284AC2F80435284B02221A6070BD082B8A
:1020800002D109232360EAE7092BE8D0032B02D110
:10209000FFF79EFEE2E7591F012901D80623F1E769
:1020A0000A2B04D1032382F83C300B23EAE70C2BE4
:1020B00002D1FFF7D3FED1E7122B02D113233360F5
:1020C000CDE7012B03D1FFF7DFFE3060C7E713B97F
:1020D000FFF7FAFEF9E7142B01D11523EFE7152BD3
:1020E00002D1FFF715FFF0E7072B1FBF0722226081
:1020F0000A4A1370B3E7FFF71BFF0028B3DDBDE703
:1021000044120020440000206413002088010020B5
:102110001E100020001000408C01002090170020AD
:102120002DE9F8435F4F604C97F839305F4E4FF020
:102130000108002568F3070563F3820597F8383036
:1021400063F3C3056FF30415EBB2237000236370D0
:10215000A370574BC3F80445564B02221A6073789C
:10216000032B0FD9F078337940EA03207379B279E1
:1021700043EA0223042B24D14F4AF11D00F0E8FF6B
:1021800087F83B80737803F0FF00C3B94A4F3B796F
:1021900023B3FA880223D1B263F301050B1DDBB22E
:1021A000EDB225706370130AE1702371042363712B
:1021B000A0710723D91F8A420BDC00233B71BDE8C5
:1021C000F883062BDED13B463C4AF11D00F0BEFEF3
:1021D000D8E7591C785CE0540B46EBE7374E96F88D
:1021E0000090B9F1000F1CD0022262F30105728841
:1021F000D0B2011DC9B2EDB225706170110AE07054
:10220000217106216171A371311D9A4203F107000A
:1022100002DC00233370D2E711F8015B255401334F
:10222000F3E7384601F056FB8046C8B1FA8802232E
:10223000D1B263F301050B1DDBB2EDB22570637003
:10224000130AE17023710423637184F80690072355
:10225000D91F8A42B1DD591C785CE0540B46F7E780
:102260001049304600F090FE0028A8D0022363F306
:1022700001057388D9B20A1DD2B2EDB22570627021
:102280001A0AE17022710622627184F80680321DFA
:10229000434508F10701BCDD12F8010B605408F159
:1022A0000108F5E7441200201E10002064130020EE
:1022B000001000408C010020721400204C0E002001
:1022C0000122002362F307030B4A92F8391092F8B7
:1022D000382061F3820362F3C303084A03F0EF037B
:1022E0001370002353709370054BC3F80425054BFE
:1022F00002221A60704700BF441200201E10002006
:10230000001000408C0100202DE9F047764E054674
:10231000336850B1022B06D1744AD2F8003223F050
:102320000403C2F80032BDE8F087012B40F0D580ED
:10233000FEF79CFD6E4B6F4918601A686E4B1B6868
:10234000D21AA2F28B23B3F5957F08D80B685002FE
:1023500000EB0222FD2000FB03231B0A0B60674FEA
:102360000A683B68664C120A40F2523101338A42D5
:102370003B6034D9052B07DDA38D642B04D9A02045
:10238000FEF7D6FD00233B605E4F3B68012B10D16A
:10239000A28BA18B40F2E240504344F6206CA0F5A2
:1023A0004870594A0CFB01F10001FEF7ABFD032315
:1023B0003B60FEF769FD94F83C302063534A544F6C
:1023C00043B3537833B3534BD3F80014524B91B902
:1023D0001A6801321A60FFF773FF504A76E040F244
:1023E000ED218A42D0D8052BCEDDA38D642BCBD92D
:1023F0006FF09F00C4E700211960D4F8E430013386
:10240000C4F8E430D4F8E43023B9D4F8E830013328
:10241000C4F8E8300023354992F801C07B70D1F848
:1024200000045FFA8CFC0028D5D0107894F839802D
:10243000C0B2002260F30702C2F3C0095FFA89FE4E
:10244000C64506D0D1F8003223F00403C1F80032AB
:1024500069E794F838A0D1F80082C2F3800248F00E
:1024600004085245C1F8008209D12C4A5178023142
:1024700012F8010BF85401338B42F9DDADE700F09F
:1024800003008EF0010E032884F839E084F83890B8
:1024900002D1BCF1000F06D1214B1B68002B08DBD9
:1024A000BCF1000F05D1C31E58425841FFF7B2FDE1
:1024B00093E7431E012B02D8FFF732FE8DE7002879
:1024C0008BD188E77B5D02F8013B01357B780233D5
:1024D0009D42F7DD0223336025E7022B02BF034B49
:1024E0000A4AC3F804251EE78C01002000100040B2
:1024F0009C0100203C000020980100209401002055
:1025000044120020780100205519000064130020B7
:102510001E10002000F0004090010020E80E002076
:1025200044000020F0B5804D2B6813F002028DB0FE
:102530001AD07E4C7E4BC4F804357E4B1B680BB121
:10254000FEF74AFED4F800327B4A43F00203C4F897
:102550000032D4F8003243F00403C4F800320123FF
:102560002B6013600DB0F0BD13F00105FAD0704B75
:10257000DFF8F0C118785C78C0B2002160F3070181
:10258000E4B2DCF800609F5CB754944202F10106AB
:102590002BDA6A4A14606A4C226801322260634A6C
:1025A000D2F80044674A146000F00F02032A3BD1BE
:1025B000614C2268012A40F0B1800220624D206007
:1025C00009201E5C15F8017B0130B74218BF0022BC
:1025D0000F28F6D15748006802B140B901232360A3
:1025E0000028BFD0FEF7F8FDBCE73246C9E75748E0
:1025F00003229D5C00F8015B0132092AF9D1012315
:10260000C1F380110193009104234F4A062102A8CF
:10261000FFF728F94E4B01461B684E4802AAFFF708
:10262000F3F8032323609DE7052A77D14648092262
:102630009C5C10F8016B0132A64218BF00250F2ADE
:10264000F6D11DB93C4B01221A60CBE7424C3F4DFD
:10265000032022461E5C05F8016B1E5C04F8016B2A
:1026600001300928F6D1C1F3C010C1F380115173B4
:10267000D97B1D7C5C7C107341EA0521987C41EA82
:10268000044141EA00611161D87C1C7D597D090437
:1026900041EA042101435161997D1176D97D187E6B
:1026A00041EA0021587E9C7E518340EA04209083B9
:1026B000D87E1C7F40EA0420D083587F9C7F40EA6C
:1026C00004201084D87F82F8220093F8200082F83A
:1026D000230093F8210082F8240093F8220082F866
:1026E000250093F8230082F8260093F8240093F83D
:1026F00024305B0982F8283000F01F00174B82F865
:10270000270000229A8342F2107399423FF62AAFC3
:10271000FFF742FA124801F093F823E7054B1B68D4
:10272000002B3FF41FAF5DE78C010020001000403C
:10273000641300204C000020780100208401002058
:10274000800100207C0100204A120020B0170020E8
:1027500048000020D6BE898E44120020CC180020EC
:10276000721400205000002010B5144CD4F804312D
:1027700053B10023C4F80431114B1B68022B02D162
:102780000120FFF7C1FD0123D4F80C2182B1002004
:102790000B4BC4F80C011B68012B03D1BDE81040A2
:1027A000FFF7C0BE022B08D1BDE81040FFF7ACBD5B
:1027B0001BB9BDE81040FEF703BE10BD001000407D
:1027C00074010020024B1868831E5842584170471C
:1027D00074010020014900F04BBA00BF44120020F0
:1027E000014900F04BBA00BF44120020014800F03C
:1027F0004BBA00BF4412002038B50546FFF7F6FF7C
:102800004FF0805309485C6EC4F3150444F480040F
:10281000214600F0E5F8030A28706B70000C230ACB
:10282000EC70240CA8702B716C7138BDDE12002086
:10283000264B82B000220121C3F80022C3F8041500
:1028400019600192019909020191C3F80021D3F89E
:102850000021002AFBD0D3F80815019A0A430192FF
:10286000019A120201920022C3F80021174BD3F8FB
:102870000021002AFBD0D3F80815019A0A430192DF
:10288000019A120201920022C3F800210F4BD3F8E3
:102890000021002AFBD0D3F80815019A0A430192BF
:1028A000019A120201920022C3F80021074BD3F8CB
:1028B0000021002AFBD0D3F80825019B1343019384
:1028C000019A034B1A6002B0704700BF00D000406D
:1028D000540000200A4A0B4BD2F8001139B1D2F84B
:1028E00008051968014319600021C2F80011186831
:1028F00080EA403080EA504080EA4010186070471B
:1029000000D000405400002010B50446FFF7E2FF5D
:10291000030A20706370030C000EA370E070FFF7D1
:10292000D9FF030A20716371030C000EA371E071DB
:1029300010BD0000034A0023C15CD1540133102BA9
:10294000FAD17047EC1900200F4A70B500231446E5
:10295000C65CD5180133102B2E74F9D10B4BC3F87C
:1029600004250022C3F8002101221A60D3F80021B7
:10297000002AFBD00023E21892F82020CA54013329
:10298000102BF8D170BD00BFEC19002000E0004012
:10299000114A00F11003F0B51F461546FC1A13F852
:1029A000016D144483422674F8D10C4BC3F80425FE
:1029B0000022C3F8002101221A60D3F80021002A66
:1029C000FBD001390F23EA1813F1FF3392F82020CE
:1029D00001F8012FF7D2F0BDEC19002000E0004013
:1029E00010B588B00C46FFF7A5FF00230DF10302D8
:1029F000194601330D2B02F8011BFAD1ADF8004046
:102A00006846240C04A98DF80240FFF7C1FF9DF829
:102A100012309DF811001B0443EA00239DF81000BA
:102A2000184308B010BDF0B591B00DF102058DF856
:102A30000030189C9DF85C308DF80130013A4B1E37
:102A4000063113F8016F05F8016B8B4212F8016F24
:102A5000AE71F6D1169B04AD621E013B05342946CA
:102A600012F8016F01F8016BA24213F8016F4E7169
:102A7000F6D1002308A90793421E00F10F036E460A
:102A8000084612F8017F16F8014B9A4284EA0704BF
:102A900001F8014BF5D10CA9FFF77AFF0CAA00232E
:102AA000117815F8010B01334140102B02F8011B7E
:102AB000F6D119990CA8FFF76BFF11B0F0BD7FB5E7
:102AC0006B4600F1080408311D4614F8016D03F847
:102AD000016B844211F8016DDE71F6D11146284672
:102AE000FFF732FF04B070BD10B500F1F50200F140
:102AF000F4010F23C41813F1FF3394F8CC4001F80C
:102B0000014FF7D290F8EC307BBBD0F8DC3080F886
:102B10000531D0F8DC301B0A80F80631D0F8DC3003
:102B20001B0C80F80731D0F8DC301B0E80F8083120
:102B3000D0F8E03090F8EC1080F80931002380F8EC
:102B40000D1180F80A3180F80B3180F80C3100F259
:102B50000D11C418013394F8ED4001F8014F082B12
:102B6000F7D10D4BC3F8082510BDD0F8E43080F83C
:102B70000531D0F8E4301B0A80F80631D0F8E43093
:102B80001B0C80F80731D0F8E4301B0E80F80831B8
:102B9000D0F8E830CEE700BF00F0004001280DD1AA
:102BA000154B4FF04072C3F80425A3F58033002283
:102BB000C3F800220222C3F800257047022810D172
:102BC0000D4B4FF08072C3F804254FF00072C3F82C
:102BD0000825A3F580330122C3F80022C3F80005BD
:102BE00070470028FCD1044B4FF04072C3F8082511
:102BF000A3F58033F2E700BF00F00140F0B501EB30
:102C000040010025854200DBF0BD11F8024C11F8AF
:102C1000013CA4F1300CBCF1090F0BD86646A3F1BE
:102C20003004092C16D8274607EB061353550239F2
:102C30000135E7E7A4F1610CBCF1050F02D8A4F15E
:102C40005706ECE7A4F1410CBCF1050F98BFA4F1C5
:102C50003706E4E7A3F16104052C02D8A3F1570776
:102C6000E2E7A3F14104052C98BFA3F13707DBE7A6
:102C700001F16A0201461020FFF7C0BF01F17A029C
:102C800001461020FFF7BABF10B5B92204467F21D4
:102C90008A30A52300F8013B3B3BDBB2C17380F8CF
:102CA0002F2011315732F52BC9B2D2B2F2D1FFF732
:102CB00011FE80B2A4F85000A4F84E0004F14500C3
:102CC000BDE81040FFF720BE8A30B9227F21A5233E
:102CD00000F8013B3B3BDBB2C17380F82F20113180
:102CE0005732F52BC9B2D2B2F2D1704710B50122DA
:102CF000837981F898200D4A4A6003F00703102277
:102D0000C1F894300A818B72421E0B1D063012F8F6
:102D1000014F83F84040824213F8014B83F846404C
:102D2000F5D101230B7007234B8010BD0203000176
:102D3000F0B501F18203154689B00C4600F110028E
:102D400010F8011F03F8011B9042F9D104AA0023D7
:102D5000174619460133102B02F8011BFAD104F172
:102D600052063046FFF7D0FD04F15A00FFF7CCFDC4
:102D70003846FFF7DFFD04F172030393AB1D0293A6
:102D80002B7B04F14B02CDE9005304F144016B7B32
:102D90003046FFF748FE0323237104F11502631D3B
:102DA00093F86D1003F8011B9342F9D101232370AE
:102DB0001123638009B0F0BDF0B501F1620315463F
:102DC0008DB00C4600F110021F4610F8011F03F8E9
:102DD000011B9042F9D104AA002310461946013381
:102DE000102B02F8011BFAD1FFF7A4FDAB1D0293D3
:102DF0002B7B08AECDE9005304F14B026B7B0396AD
:102E000004F144013846FFF70EFE04F1820204F19A
:102E10009201012312F8010B16F801CB844518BF6B
:102E200000239142F6D143B901232370022363802A
:102E300040F20543A3800DB0F0BD0423237104F1DB
:102E40001502631D93F84D1003F8011B9342F9D14D
:102E5000012323701123638005F18A02394604F1AE
:102E60005200FFF72CFE0F2384F89A30E3E738B5C1
:102E700006230D46037104460846FFF705FF05F1DA
:102E80009903621D893513F8011902F8011BAB4241
:102E9000F9D10123237011236380032384F89A302E
:102EA00038BD10B507230371B1F84E304371B1F846
:102EB0004E301B0A8371C21D01F145034D3113F8D9
:102EC000014B02F8014B8B42F9D1012303700B2314
:102ED0004380022380F89A3010BD10B50823037197
:102EE000421D01F19A03AA3113F8014B02F8014B7C
:102EF0008B42F9D10123037011234380022380F810
:102F00009A3010BD10B540F209138380821D8B1DCD
:102F10000C3113F8014B02F8014B8B42F9D101231C
:102F200003700823438010BD10B50A230371421DAE
:102F300001F1BA03CA3113F8014B02F8014B8B427D
:102F4000F9D1012303701123438010BD084610B44A
:102F50000478E4B2012C11461A4603D15DF8044B03
:102F6000FFF7C4BE032C03D15DF8044BFFF7E0BEAE
:102F7000042C03D15DF8044BFFF71EBF5DF8044B32
:102F8000704780F89910704738B590F8985004460B
:102F90004DB190F8995035B190F89A302BB1013B72
:102FA00080F89A300025284638BDD0F8943013F0C8
:102FB00001050CD043F48053C0F89430FFF757FF5D
:102FC000D4F8943023F00103C4F89430EBE7DA042A
:102FD00009D5FFF766FFD0F8943023F48053C4F886
:102FE00094300125DFE79D070AD543F40053C0F86C
:102FF0009430FFF772FFD0F8943023F00203EEE72D
:103000009A0406D5FFF77EFFD0F8943023F40053DE
:10301000E5E713F0040506D0FFF786FFD0F89430FB
:1030200023F00403DBE780F89850BCE72428054B25
:1030300002DC25221A707047602801DD6022F9E762
:10304000187070475800002007490B680F2BDFBF2E
:103050005A1C03600A600549CCBF4FF0FF3241F8AB
:1030600023001046704700BFA40100201C1B002055
:1030700007490B683F2BDFBF5A1C03600A600549F4
:10308000CCBF4FF0FF3241F823001046704700BF1D
:10309000A00100201C1A0020F0B50023CA5C82BBEE
:1030A000471E013B0F30CE5CA6F13005092D03F120
:1030B000FF3306D926F02002413A052A01D9002B18
:1030C000F1DCCC5CA4F13002092A03F1FF3307D90B
:1030D00024F02002413A052A01D9002BF1DA00221E
:1030E000A4F1610CBCF1050F0DD8A4F15702092D14
:1030F00011D82C46A6F14105052D98BFA6F137043D
:103100000FE00133CAE7A4F1410CBCF1050F98BFF1
:10311000A4F13702EBE7A6F16104052C08D8A6F16B
:10312000570404EB021207F8012FB842BBD1F0BDDF
:103130000024DFE70023D0F888209A4201DC1846FB
:103140007047C21892F88C20CA540133F3E700008C
:103150002DE9F84F0B78DBB2022B144622D14B78C5
:103160008A7843EA0222162A10D9C44B1B7863726C
:10317000002093424FF00301A07228BF13460120A4
:1031800021722071E1806380BDE8F88F01232371F3
:103190000523E38040F2012323810023638104237C
:1031A0002373F1E7042B40F0A5804A788B78C87828
:1031B00042EA03220B7912B296B240EA0320864219
:1031C00000D846B901236281237323710523E3806C
:1031D00040F20143A7E005232372A94B4FF0010EF3
:1031E000D3F800B0A74B00254FF00209F446AB45D9
:1031F0002ADCBEF1020F4FF0010377DC23710523B7
:103200006281E3800A2240F20143227323814A78DB
:103210008B7842EA0322CB78097912B296B243EA5C
:1032200001218E42CED8002ECCD005232372964B9E
:10323000964FD3F800800025A84500F3DE810A23CD
:10324000237362810123C0E753F8048BB8F806703A
:10325000B74225D3874223D8B8F80A802788B8F127
:10326000000F1FD00EF10508B845C2DAA6448EF84B
:1032700008C053F8047CFF888EF8097053F8047C6A
:10328000FF883F0A8EF80A7053F8047C7F898EF815
:103290000B7053F8047C7F893F0A8EF80C70C64689
:1032A0000135A4E70EF1120ABA45A2DA04EB0E0AC0
:1032B0008AF8089053F8047CFF888AF8097053F85C
:1032C000047CFF883F0A8AF80A700EF10B0AA244B8
:1032D00053F8047C474408F101083F7B0AF8017B5E
:1032E000B8F1100FF4D10EF1130ED9E72371A4F841
:1032F00006E049E7102B40F07D8248788B7891F802
:1033000003C040EA03200B7900B286B24CEA032CDA
:10331000664500D84EB901236081237323710523CC
:10332000E38041F2010323812EE74B798A7943EA56
:1033300002231121B3F5205F21727FF425AF504B9A
:10334000504AD3F800A000254FF0FF3101234FF081
:1033500014094FF00608AA4509DC052B4FF00102BD
:1033600000F317810A23608123732271D7E752F893
:10337000047BB7F806E0B6457ED3E6457CD87F8966
:10338000002F39D0022937D0B4F800E05F1D77450F
:10339000E3DA4F1C02BFE118013381F8088052F8CC
:1033A000047C04EB030EFF888EF8087052F8047C4E
:1033B000FF884FEA17278EF8097052F8047C3F897E
:1033C0008EF80A7052F8047C3F894FEA17278EF86E
:1033D0000B7052F8047C7F898EF80C7052F8047CD4
:1033E00003F1050B7F89DE46A6444FEA172708BF85
:1033F000012106338EF8087052F8047C7F89002F73
:103400003AD1012938D0B4F800E003F11307774529
:10341000A3DA4F1C02BFE118013381F8089052F87B
:10342000047C04EB030EFF888EF8087052F8047CCD
:10343000FF884FEA17278EF8097052F8047C3F89FD
:103440008EF80A7052F8047C3F8903F10C0B4FEAA6
:1034500017278EF80B7008BF0221A3444FF0000E0F
:1034600052F8047C77440EF1010E3F7B0BF8017B90
:10347000BEF1100FF4D1143301356CE75800002071
:10348000A40100201C1B0020A00100201C1A002009
:103490004D788B7891F803C045EA03250B792DB25E
:1034A0001FFA85FE4CEA032CE64502D8BEF1000F58
:1034B00008D101236581237323710523E38040F63E
:1034C000010330E74A798B79102842EA032205DDAF
:1034D0004B1D153113F8016B9942FBD1092323725F
:1034E00042F602039A4204D10A2323736581012321
:1034F000E2E7BE4BD3F8008042F603039A42BC4B8E
:1035000011D000214145EFDA53F8047B3E8976451E
:1035100007D3664505D81028B7F870604CDD002E3B
:103520004ED00131EEE7194600224245DCDA51F86F
:10353000040BC68876453DD366453BD8B0F870107D
:10354000002914BF07211521617253F82210C98880
:10355000A17253F82210C988090AE17253F82210A7
:103560000979217353F822100989617353F82210E5
:103570000989090AA17353F82210B1F8701059B1E2
:10358000E17353F82230B3F870301B0A2374092317
:1035900001222271E380F7E504F10F0553F82200C0
:1035A0000844013190F8720005F8010B1029F5D19B
:1035B0001723EDE70132B8E7002EB2D0B242B0D106
:1035C000D7F88830023363723B89A3723B891B0AA8
:1035D000E37204F10C020023D7F88800984203F14B
:1035E000040103DC01232371E180CDE5F9180133E7
:1035F00091F88C1002F8011BEEE757F8043BD3F862
:103600000C9003F1300C0020814501DC013513E6FC
:103610003CF802EBB64512D38E4510D803EB4003BD
:10362000012161721A8EA2721A8E120AE2721A8A2D
:1036300022731B8A21711B0A63730623AAE70130D8
:10364000E2E756F8045B2A8982420ED0D5F80CE0F6
:1036500005F130070022964501DC0131DEE037F844
:10366000028B804503D00132F5E74FF0FF320B2388
:10367000561C23720CD104F109012846FFF75AFDAC
:103680000123013085F8523101232371E0807BE56D
:1036900005EB42050320B5F850306372B5F85030A1
:1036A0001B0AA372F0E7122B56D14B788A78DFF809
:1036B00040C143EA02231EB24C4BD3F80080B7B29C
:1036C0000025A84509DC0A23237301232371052360
:1036D000E380668141F2012325E65CF8043B1A8908
:1036E000BA420ED0D3F80C9003F1300E002291456F
:1036F00001DC0135E5E73EF802ABBA4503D0013203
:10370000F5E74FF0FF3213252572551C1CD1033805
:103710001828A8BF182000220331824209DB0122A9
:10372000C3F88800C3F8EC0083F85121012323710A
:1037300030E78D5C9E18EDB286F88C508D5CEDB252
:1037400086F8F0500132E8E7C8780979283240EA73
:10375000012023F81200E9E7522B7FF415AD002376
:103760002371E3804D788A78214E45EA02251F4A6D
:10377000D2F800C01A4694457FF706AD56F8043BD0
:103780001C89AC420ED0D3F80CE003F130070024C2
:10379000A64501DC0132EEE737F8028BA8451CD0C4
:1037A0000134F5E703381828A8BF18200022033198
:1037B000824207DB0122C3F88800C3F8EC0083F8DB
:1037C0005121E1E48C5C9D18E4B285F88C408C5C5E
:1037D000E4B285F8F0400132EAE7CA780979283482
:1037E00042EA012223F81420CEE400BFA001002009
:1037F0001C1A0020082B3FF44BAE042B3FF407ADFE
:103800000A2B7FF450AF4B788A780B4E43EA0223A1
:103810000A4A1BB2D2F800C098B200218C453FF78B
:1038200010AF63810A232373012323710523E380EF
:1038300040F6012377E500BF1C1A0020A0010020FC
:10384000F0B50D4B0D481C68002242F602151646D5
:10385000944200DCF0BD50F8043BD968002909DD32
:10386000103303EB410133F8027BAF4208BFDE8720
:103870008B42F8D10132EBE7A00100201C1A002096
:1038800038B5124B124A196804460023994201DCEC
:10389000002018E052F8045B95F85001A0B11B23FA
:1038A00023722B8963722B891B0AA37204F10B010B
:1038B0002846FFF73FFC012303300022E0802371FC
:1038C000184685F8502138BD0133DFE7A0010020FC
:1038D0001C1A0020FFF7D4BF0649074A074B9B1A62
:1038E00003DD043BC858D050FBDCFCF773FFFCF74A
:1038F000A7FC0000683A000000000020C40000207F
:10390000FEE7FEE7FEE7FEE7FEE7FEE7FEE7FEE78F
:10391000FEE7FEE708B5074B044613B10021AFF3FD
:103920000080054B1868836A03B19847204600F071
:1039300031F800BF00000000583A000070B50D4D8E
:103940000D4C641BA4100026A64209D10B4D0C4C53
:1039500000F022F8641BA4100026A64205D170BD19
:1039600055F8043B98470136EEE755F8043B984775
:103970000136F2E7BC000020BC000020BC000020A3
:10398000C000002002440346934200D1704703F870
:10399000011BF9E7FEE700BFF8B500BFF8BC08BCA3
:1039A0009E467047F8B500BFF8BC08BC9E467047FD
:1039B0003141454631353843333246433443424240
:1039C000414134374142323941413339314141304B
:1039D0000035324332333438373741424636434577
:1039E000423841383241363439433335343239354F
:1039F000330030333541323635452D334341382D90
:103A0000323645412D333943302D3343413336412E
:103A100045324632303000754D796F3220626F6F1B
:103A2000746C6F61646572003737324143453233DD
:103A30002D343238342D413633342D384145302D34
:103A400034344142333845314143303000754543C9
:103A50004720626F6F7400005C00002000000000CF
:083A6000E0C7FF7F0100000038
:103A6800250000001A0A1F2358E250080A00000027
:103A7800DF6210FCA305C0DE117710FCA305C0DED1
:103A880011AA000004000000FF000000010000006F
:103A980040000000000100000002000000200300B8
:103AA80025000000FFFFFFFF2500000001000000C7
:103AB800BC1700204E61BC0025000000000000007B
:103AC80000000000000000000000000000000000EE
:103AD80000000000000000000000000000000000DE
:103AE80000000000000000000000000000000000CE
:103AF80000000000000000000000000000000000BE
:103B080000000000000000000000000000000000AD
:103B18000000000000000000000000002502000076
:043B28000102000096
:04000003000038D9E8
:00000001FF
